:100000000C9436000C945F080C948C080C945E00E1
:100010000C945E000C945E000C945E000C945E00E8
:100020000C945E000C945E000C945E000C945E00D8
:100030000C945E000C945E000C945E000C945E00C8
:100040000C94B9080C945E000C94CE090C945E00DC
:100050000C945E000C945E000C945E000C945E00A8
:100060000C94A9020C945E00A201390711241FBE52
:10007000CFEFD4E0DEBFCDBF12E0A0E0B1E0E6E01C
:10008000F5E102C005900D92A631B107D9F712E053
:10009000A6E1B2E001C01D92AB3DB107E1F710E06F
:1000A000CCE6D0E004C02297FE010E947D0AC8364B
:1000B000D107C9F70E9432070C94810A0C94000002
:1000C0000F931F93CF93DF93689F8001699F100D5B
:1000D000789F100D1124C8010E947C00EC0100974C
:1000E00029F0A80160E070E00E947E01CE01DF915E
:1000F000CF911F910F910895CF93DF93BC01823070
:10010000910510F462E070E0A091D902B091DA029A
:10011000ED01E0E0F0E040E050E021C0888199810D
:100120008617970769F48A819B81309719F093832A
:10013000828304C09093DA028093D902FE0134C016
:100140006817790738F44115510519F08417950798
:1001500008F4AC01FE018A819B819C01E901209792
:10016000E9F641155105A9F1CA01861B970B0497C1
:1001700008F4BA01E0E0F0E02AC08D919C9111975B
:1001800084179507F9F46417750781F412968D9119
:100190009C911397309719F09383828304C09093B6
:1001A000DA028093D902FD0132964CC0CA01861B47
:1001B000970BFD01E80FF91F6193719302978D93DF
:1001C0009C9340C0FD01828193819C01D9011097CD
:1001D000A1F68091D7029091D802892B41F48091A9
:1001E0000B0290910C029093D8028093D702409119
:1001F0000D0250910E024115510541F44DB75EB705
:100200008091090290910A02481B590B2091D70254
:100210003091D802CA01821B930B8617970780F092
:10022000AB014E5F5F4F8417950750F0420F531F8D
:100230005093D8024093D702F9016193719302C0A1
:10024000E0E0F0E0CF01DF91CF910895CF93DF930D
:10025000009709F450C0EC0122971B821A82A091EA
:10026000D902B091DA02109709F140E050E0AC17E2
:10027000BD0708F1BB83AA83FE0121913191E20FF2
:10028000F31FAE17BF0779F48D919C911197280F3A
:10029000391F2E5F3F4F3983288312968D919C9191
:1002A00013979B838A834115510571F4D093DA0229
:1002B000C093D90220C012968D919C911397AD01E5
:1002C000009711F0DC01D3CFFA01D383C2832191CF
:1002D0003191E20FF31FCE17DF0769F4888199810E
:1002E000280F391F2E5F3F4FFA01318320838A8107
:1002F0009B8193838283DF91CF910895DC0101C0BC
:100300006D9341505040E0F7089581E080931F02C3
:1003100060931A0210921D0210921E02089590918D
:10032000180280911902981710F080E00895E0916A
:100330001602F0911702E90FF11D80819F5F9093E3
:10034000180208950895DF93CF930F92CDB7DEB7CB
:10035000698380911F028823A9F080911E02803258
:10036000B0F480911D02E0911B02F0911C02E80F95
:10037000F11D608380911D028F5F80931D02809329
:100380001E0205C061E0CE0101960E948C020F9012
:10039000CF91DF9108950E94A301089560911B02FF
:1003A00070911C0221E040911E0280911A020E946D
:1003B000470210921D0210921E0210921F02089511
:1003C000862F413208F040E26091160270911702C8
:1003D0000E941102109218028093190208950E943F
:1003E000E001089561E070E080E290E00E9460002A
:1003F000809316029093170210921802109219021D
:1004000061E070E080E290E00E94600080931B0257
:1004100090931C0210921D0210921E020E942B0447
:100420000895982F413210F040E02FC080912102B2
:100430008823E1F781E0809321028FEF80933202DD
:100440001092290240932A02990F91609093220200
:1004500085EE8093BC00809121028130E1F3809190
:100460002902841710F440912902A0912702B0912B
:10047000280220E030E007C0FB01E20FF31F8D915E
:1004800080832F5F3F4F2417B8F3842F08951F9365
:10049000582F122F413210F081E03CC08091210290
:1004A0008823E1F782E0809321028FEF809332026C
:1004B0001092290240932A02A0912702B0912802AB
:1004C000FB0102C081918D938E2F861B8417D0F380
:1004D000852F90E0880F991F8093220285EE8093EC
:1004E000BC00112321F0809121028230E1F3809140
:1004F00032028F3F11F480E00DC0809132028032D1
:1005000011F482E007C080913202803311F084E060
:1005100001C083E01F910895482F613210F081E0FF
:10052000089580912102843011F082E00895609353
:100530002E02A0912B02B0912C02842F9C01F90174
:1005400002C081918D938E2F841B8617D0F380E09B
:1005500008951F920F920FB60F9211242F933F937D
:100560004F935F936F937F938F939F93AF93BF93BB
:10057000EF93FF938091B90090E0887F9070803670
:10058000910509F4E2C081369105CCF588329105D8
:1005900009F47BC089329105B4F48031910509F4E6
:1005A0006FC0813191053CF4009709F438C1089778
:1005B00009F040C165C08831910509F466C0809793
:1005C00009F038C17FC08034910509F4A3C081349B
:1005D000910544F48033910509F47FC0C89709F070
:1005E00029C186C08035910509F486C088359105FA
:1005F00009F495C08834910509F01CC19EC0883962
:10060000910509F404C189399105ECF48837910505
:1006100009F49BC0893791054CF48836910509F49B
:1006200094C08037910509F005C18FC088389105C5
:1006300009F4EDC08039910509F48DC08038910529
:1006400009F0F8C088C0803B910509F4B2C0813B35
:1006500091054CF4803A910509F491C0883A9105CE
:1006600009F0E8C0A6C0803C910509F4D4C0883CDC
:10067000910509F4D0C0883B910509F0DBC0B1C0F9
:10068000809122028093BB00C0C09091290280918A
:100690002A02981778F490912902E0912702F091AC
:1006A0002802E90FF11D80818093BB009F5F90932A
:1006B0002902ABC085ED8093BC008091BC0084FD15
:1006C000FCCFB6C080E28093320285ED8093BC00FF
:1006D0008091BC0084FDFCCFABC080E380933202EC
:1006E00085ED8093BC008091BC0084FDFCCFA0C050
:1006F00088E3809332028FC0809129029091BB00E1
:10070000E0912702F0912802E80FF11D90838F5F9E
:10071000809329029091290280912A0274C08091CD
:1007200029029091BB00E0912702F0912802E80F86
:10073000F11D90838F5F8093290285ED8093BC002B
:100740008091BC0084FDFCCF73C083E080932102C4
:10075000109231025AC080913102803208F057C0A5
:10076000809131029091BB00E0912F02F091300214
:10077000E80FF11D90838F5F8093310246C0809116
:100780003102803248F480913102E0912F02F091E1
:100790003002E80FF11D108260913102E0912502D4
:1007A000F091260270E080912F029091300209951D
:1007B00032C084E08093210210922D0210922E020A
:1007C000E0912302F0912402099580912E02882362
:1007D00041F481E080932E02E0912B02F0912C02F3
:1007E000108290912D02E0912B02F0912C02E90FE2
:1007F000F11D80818093BB009F5F90932D029091AB
:100800002D0280912E02981710F485EC01C085E826
:100810008093BC000FC085EC8093BC0009C010928F
:10082000320285ED8093BC008091BC0084FDFCCF3A
:1008300010922102FF91EF91BF91AF919F918F9103
:100840007F916F915F914F913F912F910F900FBECC
:100850000F901F90189510922102449A459AE9EB47
:10086000F0E080818E7F808380818D7F808388E42B
:100870008093B80085E48093BC0061E070E080E282
:1008800090E00E946000809327029093280261E02C
:1008900070E080E290E00E94600080932B029093D1
:1008A0002C0261E070E080E290E00E9460008093A2
:1008B0002F02909330020895CF93DF9368E670E0A3
:1008C00080E292E00E94850160E070E080E292E0C8
:1008D0000E94CB01C3E3D2E06991799180E292E07A
:1008E0000E94CB0182E0C134D807B1F780E292E0E8
:1008F0000E94CE01DF91CF910895109234021092A0
:1009000033020E945C040895809133029091340276
:10091000806890933402809333020E945C040895AF
:10092000462F833009F460C0843030F4813061F1A7
:10093000823008F041C00AC0853009F475C08530A6
:1009400008F45AC0863009F09CC085C06C3308F0AA
:1009500098C0862F6AE00E940B0A282F30E0F4E04E
:10096000220F331FFA95E1F7842F0E940B0A290FFB
:10097000311D80913302807890E0282B392B309301
:100980003402209333027DC06C3308F07AC0862F86
:100990006AE00E940B0A282F30E0E4E0220F331FA8
:1009A000EA95E1F7842F0E940B0A290F311D30933D
:1009B00036022093350265C0683108F062C0862F88
:1009C0006AE00E940B0A282F30E074E0220F331FE8
:1009D0007A95E1F7842F0E940B0A290F311D30937D
:1009E0003802209337024DC0683008F04AC0609347
:1009F000390210923A0245C0603208F042C0862F98
:100A00006AE00E940B0A282F30E054E0220F331FC7
:100A10005A95E1F7842F0E940B0A290F311D30935C
:100A20003C0220933B022DC06D3058F5862F6AE0C2
:100A30000E940B0A282F30E094E0220F331F9A9572
:100A4000E1F7842F0E940B0A290F311D30933E02DB
:100A500020933D0216C06238A0F4862F6AE00E94FF
:100A60000B0A282F30E084E0220F331F8A95E1F72C
:100A7000842F0E940B0A290F311D309340022093CE
:100A80003F020E945C0408950E94840461E080E0BB
:100A90000E9490046FE081E00E94900467E182E090
:100AA0000E94900464E083E00E9490046CE084E083
:100AB0000E94900462E085E00E94900469E086E074
:100AC0000E9490040E947D040895CF93DF9368E60E
:100AD00070E080E292E00E94850160E070E080E2D8
:100AE00092E00E94CB0180E292E00E94CE0147E0BA
:100AF00050E068E670E080E292E00E94EF01C3E31C
:100B0000D2E080E292E00E948F01888319822296CF
:100B100082E0C134D807A9F7DF91CF9108951F93E0
:100B2000182F662311F00E946505133011F114305F
:100B300028F4113089F01230B8F409C0153029F1C9
:100B40001530F0F01630D1F14FEF5FEF53C0209128
:100B500033023091340204C02091350230913602C4
:100B6000C9018077907018C0209137023091380207
:100B700010C04091390250913A02477050703AC00B
:100B800020913B0230913C0204C020913D02309103
:100B90003E02C90180739070E4E095958795EA95CF
:100BA000E1F7AC0173E0440F551F7A95E1F7880F28
:100BB000991F480F591F2F7030701AC080913F0243
:100BC00090914002AC014F7050704053584F807F5D
:100BD000907014E0959587951A95E1F79C01B3E024
:100BE000220F331FBA95E1F7880F991F280F391F7D
:100BF000420F531FCA011F9108950F931F93CF9364
:100C0000DF93182F092F662311F00E946505812FAD
:100C1000902F9C01E90110E060E0812F0E948F0578
:100C2000899399931F5F1730B9F7DF91CF911F9187
:100C30000F910895DF93CF93CDB7DEB72E970FB600
:100C4000F894DEBF0FBECDBF61E0CE0101960E94D9
:100C5000FD0560E071E081E492E00E9449074D816A
:100C60005E81662757FD6095762F2AE030E081E4AB
:100C700092E00E943F0869E071E081E492E00E9406
:100C800049074B815C81662757FD6095762F2AE0E6
:100C900030E081E492E00E943F0869E071E081E485
:100CA00092E00E94490749815A81662757FD609565
:100CB000762F2AE030E081E492E00E943F088F81A5
:100CC000988583309105F1F0843091054CF48130A2
:100CD000910591F08230910594F4892B51F01EC05A
:100CE00085309105A9F0853091057CF00697B1F427
:100CF00012C06BE071E014C066E171E011C067E200
:100D000071E00EC067E371E00BC067E471E008C0FA
:100D100067E571E005C066E671E002C060E771E07A
:100D200081E492E00E94490767E871E081E492E083
:100D30000E94490769857A8581E492E00E9437081C
:100D40006DE871E081E492E00E9449078B859C8503
:100D500085309105C9F18630910594F48230910572
:100D600051F18330910534F40097F9F0019709F0BF
:100D700040C01EC08330910509F10497D1F521C010
:100D80008830910551F18930910534F48630910510
:100D9000F1F0079771F51EC08A30910521F18A3074
:100DA0009105F4F00B9729F521C061E971E023C0AA
:100DB0006AE971E020C065EA71E01DC06CEA71E08B
:100DC0001AC063EB71E017C069EB71E014C060EC0E
:100DD00071E011C067EC71E00EC06FEC71E00BC008
:100DE00069ED71E008C062EE71E005C06CEE71E083
:100DF00002C066EF71E081E492E00E94490764E07E
:100E000072E081E492E00E9449074D855E85662785
:100E100057FD6095762F2AE030E081E492E00E9451
:100E200054082E960FB6F894DEBF0FBECDBFCF91FB
:100E3000DF9108950E941A0668EE73E080E090E06A
:100E40000E942909089540E855E260E070E081E4DD
:100E500092E00E94440780E292E00E94F2010E9428
:100E6000440508950E9453090E9423070E941A070F
:100E7000FDCF83E192E09093420280934102089576
:100E8000862F0E94C6090895CB01BA010E948D09E0
:100E900008950F931F93CF93DF938C01EB0109C04B
:100EA0002196D801ED91FC910190F081E02DC801CF
:100EB000099568816623A1F7DF91CF911F910F916A
:100EC00008950F931F938C01DC01ED91FC9101902B
:100ED000F081E02D6DE00995D801ED91FC91019034
:100EE000F081E02D6AE0C80109951F910F910895E6
:100EF0002F923F924F925F926F927F928F929F922A
:100F0000AF92BF92CF92DF92EF92FF920F931F9317
:100F1000DF93CF93CDB7DEB7A0970FB6F894DEBFBF
:100F20000FBECDBF1C016A017B0141155105610552
:100F3000710549F4DC01ED91FC910190F081E02D07
:100F400060E3099554C0882499245401422E552405
:100F50006624772401E010E00C0F1D1F080D191DF9
:100F6000C701B601A30192010E942A0AF801608319
:100F70000894811C911CA11CB11CC701B601A301DE
:100F800092010E942A0AC901DA016C017D01C11493
:100F9000D104E104F104F1F681E0E82EF12CEC0E2D
:100FA000FD1EE80CF91C3E010894611C711CD50162
:100FB000C4010197A109B1096C01C818D90814C06E
:100FC000F601EE0DFF1D60816A3010F4605D01C016
:100FD000695CD101ED91FC910190F081E02DC1019E
:100FE00009950894E108F1086E147F0449F7A0966A
:100FF0000FB6F894DEBF0FBECDBFCF91DF911F912A
:101000000F91FF90EF90DF90CF90BF90AF909F90A7
:101010008F907F906F905F904F903F902F900895AA
:10102000EF92FF920F931F93CF93DF93EC017A011E
:101030008B0177FF0FC0E881F9810190F081E02DED
:101040006DE2099510950095F094E094E11CF11C77
:10105000011D111D2AE0B801A701CE010E947807E9
:10106000DF91CF911F910F91FF90EF900895AB0109
:10107000662757FD6095762F0E9410080895DC01C1
:101080002115310541F4ED91FC910190F081E02DA5
:10109000642F099508952A30310519F40E9410082B
:1010A00008950E94780708950F931F938C010E9462
:1010B0003F08C8010E9461071F910F9108951F9278
:1010C0000F920FB60F9211242F933F934F935F937C
:1010D0006F937F938F939F93AF93BF93EF93FF9300
:1010E0008091430290914402892B29F0E0914302C0
:1010F000F09144020995FF91EF91BF91AF919F91BB
:101100008F917F916F915F914F913F912F910F90B0
:101110000FBE0F901F9018951F920F920FB60F924F
:1011200011242F933F934F935F936F937F938F93EC
:101130009F93AF93BF93EF93FF938091450290915C
:101140004602892B29F0E0914502F091460209956B
:10115000FF91EF91BF91AF919F918F917F916F918F
:101160005F914F913F912F910F900FBE0F901F9065
:1011700018951F920F920FB60F9211242F938F93F1
:101180009F93AF93BF938091470290914802A091A3
:101190004902B0914A020196A11DB11D80934702F8
:1011A00090934802A0934902B0934A0280914B0267
:1011B00090914C02A0914D02B0914E028050904C03
:1011C000AF4FBF4F80934B0290934C02A0934D02C0
:1011D000B0934E0227C080914B0290914C02A09197
:1011E0004D02B0914E0280589E43A040B040809383
:1011F0004B0290934C02A0934D02B0934E0280910B
:101200004F0290915002A0915102B091520201966A
:10121000A11DB11D80934F0290935002A0935102E3
:10122000B093520280914B0290914C02A0914D02DA
:10123000B0914E0281589E43A040B04060F6BF91ED
:10124000AF919F918F912F910F900FBE0F901F9094
:101250001895EF92FF920F931F937B018C018FB72C
:10126000F89440914F025091500260915102709158
:1012700052028FBF2FB7F89480914F029091500285
:10128000A0915102B09152022FBF841B950BA60B67
:10129000B70BE816F9060A071B0760F71F910F91B5
:1012A000FF90EF900895789484B5826084BD84B5F2
:1012B000816084BD85B5826085BD85B5816085BD51
:1012C000EEE6F0E0808181608083E1E8F0E08081FB
:1012D00082608083808181608083E0E8F0E08081AB
:1012E00081608083E1EBF0E0808184608083E0EBCB
:1012F000F0E0808181608083EAE7F0E080818460B3
:10130000808380818260808380818160808380810E
:10131000806880831092C1000895EF92FF920F932E
:101320001F937B018C0122E030E040E050E00E94FE
:101330004C0A205C3D4B404F5F4FCA01B901A801E8
:1013400097010E944C0AC901DA010197A109B1096C
:10135000292F3A2F4B2F552747FD5A950196A11D4E
:10136000B11D2093C50081508093C400E1ECF0E0F2
:1013700080818061808380818860808380818068B3
:1013800080831F910F91FF90EF900895982F809187
:10139000C00085FFFCCF9093C60008951F920F9266
:1013A0000FB60F9211242F933F934F935F936F9338
:1013B0007F938F939F93AF93BF93EF93FF9340914E
:1013C000C600E0915302F0915402CF01019660E80B
:1013D00070E00E94170A9C0180915502909156027C
:1013E0002817390739F0E95AFD4F408330935402EA
:1013F00020935302FF91EF91BF91AF919F918F91F5
:101400007F916F915F914F913F912F910F900FBE00
:101410000F901F901895991B79E004C0991F96179B
:1014200008F0961B881F7A95C9F78095089597FB59
:10143000092E07260AD077FD04D049D006D0002017
:101440001AF4709561957F4F0895F6F79095819500
:101450009F4F0895A1E21A2EAA1BBB1BFD010DC0D0
:10146000AA1FBB1FEE1FFF1FA217B307E407F50754
:1014700020F0A21BB30BE40BF50B661F771F881F30
:10148000991F1A9469F760957095809590959B01C6
:10149000AC01BD01CF01089597FB092E05260ED0A2
:1014A00057FD04D0D7DF0AD0001C38F45095409582
:1014B000309521953F4F4F4F5F4F0895F6F7909528
:1014C0008095709561957F4F8F4F9F4F0895AA1B10
:1014D000BB1B51E107C0AA1FBB1FA617B70710F01F
:1014E000A61BB70B881F991F5A95A9F78095909551
:1014F000BC01CD010895EE0FFF1F0590F491E02D82
:061500000994F894FFCFEE
:1015060053616F3A20202020003A00202020446FAB
:101516006D696E676F00202020536567756E646184
:101526002D666569726100202020546572C3A7612B
:101536002D666569726100202020517561727461A3
:101546002D6665697261002020205175696E74618F
:101556002D66656972610020202053657874612DBF
:1015660066656972610020202053616261646F00C4
:10157600202020446961446553616F4E756E636136
:101586002D666569726100206469612000206465CA
:1015960000204A616E6569726F0020466576657245
:1015A6006569726F00204D6172636F00204162723F
:1015B600696C00204D61696F00204A756E686F0086
:1015C600204A756C686F002041676F73746F002046
:1015D600536574656D62726F00204F757475627223
:1015E6006F00204E6F76656D62726F002044657ADB
:1015F600656D62726F00204F75666576756C686FF3
:1016060073746F0020646520002000DB0200000078
:0616160000000040070087
:00000001FF
